{
  "contractName": "PersistenRockPaperScissorsGame",
  "abi": [
    {
      "constant": true,
      "inputs": [],
      "name": "challenger",
      "outputs": [
        {
          "name": "",
          "type": "address"
        }
      ],
      "payable": false,
      "stateMutability": "view",
      "type": "function",
      "signature": "0x534db0e2"
    },
    {
      "constant": true,
      "inputs": [],
      "name": "initiator",
      "outputs": [
        {
          "name": "",
          "type": "address"
        }
      ],
      "payable": false,
      "stateMutability": "view",
      "type": "function",
      "signature": "0x5c39fcc1"
    },
    {
      "constant": true,
      "inputs": [],
      "name": "revelationTimeout",
      "outputs": [
        {
          "name": "",
          "type": "uint256"
        }
      ],
      "payable": false,
      "stateMutability": "view",
      "type": "function",
      "signature": "0x6c1f23f6"
    },
    {
      "constant": true,
      "inputs": [],
      "name": "bidAmount",
      "outputs": [
        {
          "name": "",
          "type": "uint128"
        }
      ],
      "payable": false,
      "stateMutability": "view",
      "type": "function",
      "signature": "0xaec2393b"
    },
    {
      "constant": true,
      "inputs": [],
      "name": "initiatorIncentive",
      "outputs": [
        {
          "name": "",
          "type": "uint128"
        }
      ],
      "payable": false,
      "stateMutability": "view",
      "type": "function",
      "signature": "0xba6ae5af"
    },
    {
      "constant": true,
      "inputs": [],
      "name": "state",
      "outputs": [
        {
          "name": "",
          "type": "uint8"
        }
      ],
      "payable": false,
      "stateMutability": "view",
      "type": "function",
      "signature": "0xc19d93fb"
    },
    {
      "constant": true,
      "inputs": [],
      "name": "initiatorCommit",
      "outputs": [
        {
          "name": "",
          "type": "bytes32"
        }
      ],
      "payable": false,
      "stateMutability": "view",
      "type": "function",
      "signature": "0xeb6ef32d"
    },
    {
      "constant": false,
      "inputs": [
        {
          "name": "_initiatorCommit",
          "type": "bytes32"
        }
      ],
      "name": "initiate",
      "outputs": [],
      "payable": true,
      "stateMutability": "payable",
      "type": "function",
      "signature": "0x5ede7516"
    },
    {
      "constant": false,
      "inputs": [
        {
          "name": "_challengerMove",
          "type": "uint8"
        }
      ],
      "name": "challenge",
      "outputs": [],
      "payable": true,
      "stateMutability": "payable",
      "type": "function",
      "signature": "0xd3f32357"
    },
    {
      "constant": false,
      "inputs": [],
      "name": "deleteGame",
      "outputs": [],
      "payable": false,
      "stateMutability": "nonpayable",
      "type": "function",
      "signature": "0xc8011be9"
    },
    {
      "constant": false,
      "inputs": [
        {
          "name": "moveAndSalt",
          "type": "string"
        }
      ],
      "name": "initiatorRevealsMove",
      "outputs": [],
      "payable": false,
      "stateMutability": "nonpayable",
      "type": "function",
      "signature": "0x44b94a65"
    },
    {
      "constant": false,
      "inputs": [],
      "name": "challengerClaimsVictory",
      "outputs": [],
      "payable": false,
      "stateMutability": "nonpayable",
      "type": "function",
      "signature": "0xc59d4606"
    }
  ],
  "bytecode": "0x608060405260008060006101000a81548160ff0219169083600281111561002257fe5b021790555034801561003357600080fd5b50610f3e806100436000396000f3fe6080604052600436106100ba576000357c0100000000000000000000000000000000000000000000000000000000900463ffffffff16806344b94a65146100bf578063534db0e2146101875780635c39fcc1146101de5780635ede7516146102355780636c1f23f614610263578063aec2393b1461028e578063ba6ae5af146102dd578063c19d93fb1461032c578063c59d460614610365578063c8011be91461037c578063d3f3235714610393578063eb6ef32d146103c4575b600080fd5b3480156100cb57600080fd5b50610185600480360360208110156100e257600080fd5b81019080803590602001906401000000008111156100ff57600080fd5b82018360208201111561011157600080fd5b8035906020019184600183028401116401000000008311171561013357600080fd5b91908080601f016020809104026020016040519081016040528093929190818152602001838380828437600081840152601f19601f8201169050808301925050505050505091929192905050506103ef565b005b34801561019357600080fd5b5061019c6108b0565b604051808273ffffffffffffffffffffffffffffffffffffffff1673ffffffffffffffffffffffffffffffffffffffff16815260200191505060405180910390f35b3480156101ea57600080fd5b506101f36108d6565b604051808273ffffffffffffffffffffffffffffffffffffffff1673ffffffffffffffffffffffffffffffffffffffff16815260200191505060405180910390f35b6102616004803603602081101561024b57600080fd5b81019080803590602001909291905050506108fc565b005b34801561026f57600080fd5b506102786109cd565b6040518082815260200191505060405180910390f35b34801561029a57600080fd5b506102a36109d3565b60405180826fffffffffffffffffffffffffffffffff166fffffffffffffffffffffffffffffffff16815260200191505060405180910390f35b3480156102e957600080fd5b506102f26109de565b60405180826fffffffffffffffffffffffffffffffff166fffffffffffffffffffffffffffffffff16815260200191505060405180910390f35b34801561033857600080fd5b506103416109e9565b6040518082600281111561035157fe5b60ff16815260200191505060405180910390f35b34801561037157600080fd5b5061037a6109fb565b005b34801561038857600080fd5b50610391610b4e565b005b6103c2600480360360208110156103a957600080fd5b81019080803560ff169060200190929190505050610c8f565b005b3480156103d057600080fd5b506103d9610d7f565b6040518082815260200191505060405180910390f35b338073ffffffffffffffffffffffffffffffffffffffff16600260009054906101000a900473ffffffffffffffffffffffffffffffffffffffff1673ffffffffffffffffffffffffffffffffffffffff1614151561044c57600080fd5b60028081111561045857fe5b6000809054906101000a900460ff16600281111561047257fe5b14151561047e57600080fd5b6060829050808051906020012060015414156107f95760006104f88260008151811015156104a857fe5b9060200101517f010000000000000000000000000000000000000000000000000000000000000090047f010000000000000000000000000000000000000000000000000000000000000002610d85565b9050600360149054906101000a900460ff16600281111561051557fe5b81600281111561052157fe5b141561063957600360009054906101000a900473ffffffffffffffffffffffffffffffffffffffff1673ffffffffffffffffffffffffffffffffffffffff166108fc66b1a2bc2ec500006fffffffffffffffffffffffffffffffff169081150290604051600060405180830381858888f193505050501580156105a8573d6000803e3d6000fd5b50600260009054906101000a900473ffffffffffffffffffffffffffffffffffffffff1673ffffffffffffffffffffffffffffffffffffffff166108fc662386f26fc1000066b1a2bc2ec50000016fffffffffffffffffffffffffffffffff169081150290604051600060405180830381858888f19350505050158015610633573d6000803e3d6000fd5b506107f3565b61065281600360149054906101000a900460ff16610e37565b156106ea57600260009054906101000a900473ffffffffffffffffffffffffffffffffffffffff1673ffffffffffffffffffffffffffffffffffffffff166108fc662386f26fc1000066b1a2bc2ec50000600202016fffffffffffffffffffffffffffffffff169081150290604051600060405180830381858888f193505050501580156106e4573d6000803e3d6000fd5b506107f2565b600360009054906101000a900473ffffffffffffffffffffffffffffffffffffffff1673ffffffffffffffffffffffffffffffffffffffff166108fc66b1a2bc2ec500006002026fffffffffffffffffffffffffffffffff169081150290604051600060405180830381858888f1935050505015801561076e573d6000803e3d6000fd5b50600260009054906101000a900473ffffffffffffffffffffffffffffffffffffffff1673ffffffffffffffffffffffffffffffffffffffff166108fc662386f26fc100006fffffffffffffffffffffffffffffffff169081150290604051600060405180830381858888f193505050501580156107f0573d6000803e3d6000fd5b505b5b50610888565b600360009054906101000a900473ffffffffffffffffffffffffffffffffffffffff1673ffffffffffffffffffffffffffffffffffffffff166108fc662386f26fc1000066b1a2bc2ec50000600202016fffffffffffffffffffffffffffffffff169081150290604051600060405180830381858888f19350505050158015610886573d6000803e3d6000fd5b505b60008060006101000a81548160ff021916908360028111156108a657fe5b0217905550505050565b600360009054906101000a900473ffffffffffffffffffffffffffffffffffffffff1681565b600260009054906101000a900473ffffffffffffffffffffffffffffffffffffffff1681565b6000600281111561090957fe5b6000809054906101000a900460ff16600281111561092357fe5b14151561092f57600080fd5b662386f26fc1000066b1a2bc2ec50000016fffffffffffffffffffffffffffffffff163414151561095f57600080fd5b8060018190555033600260006101000a81548173ffffffffffffffffffffffffffffffffffffffff021916908373ffffffffffffffffffffffffffffffffffffffff16021790555060016000806101000a81548160ff021916908360028111156109c557fe5b021790555050565b60045481565b66b1a2bc2ec5000081565b662386f26fc1000081565b6000809054906101000a900460ff1681565b338073ffffffffffffffffffffffffffffffffffffffff16600360009054906101000a900473ffffffffffffffffffffffffffffffffffffffff1673ffffffffffffffffffffffffffffffffffffffff16141515610a5857600080fd5b600280811115610a6457fe5b6000809054906101000a900460ff166002811115610a7e57fe5b141515610a8a57600080fd5b60045442111515610a9a57600080fd5b600360009054906101000a900473ffffffffffffffffffffffffffffffffffffffff1673ffffffffffffffffffffffffffffffffffffffff166108fc662386f26fc1000066b1a2bc2ec50000600202016fffffffffffffffffffffffffffffffff169081150290604051600060405180830381858888f19350505050158015610b27573d6000803e3d6000fd5b5060008060006101000a81548160ff02191690836002811115610b4657fe5b021790555050565b338073ffffffffffffffffffffffffffffffffffffffff16600260009054906101000a900473ffffffffffffffffffffffffffffffffffffffff1673ffffffffffffffffffffffffffffffffffffffff16141515610bab57600080fd5b60016002811115610bb857fe5b6000809054906101000a900460ff166002811115610bd257fe5b141515610bde57600080fd5b600260009054906101000a900473ffffffffffffffffffffffffffffffffffffffff1673ffffffffffffffffffffffffffffffffffffffff166108fc662386f26fc1000066b1a2bc2ec50000016fffffffffffffffffffffffffffffffff169081150290604051600060405180830381858888f19350505050158015610c68573d6000803e3d6000fd5b5060008060006101000a81548160ff02191690836002811115610c8757fe5b021790555050565b60016002811115610c9c57fe5b6000809054906101000a900460ff166002811115610cb657fe5b141515610cc257600080fd5b66b1a2bc2ec500006fffffffffffffffffffffffffffffffff1634141515610ce957600080fd5b33600360006101000a81548173ffffffffffffffffffffffffffffffffffffffff021916908373ffffffffffffffffffffffffffffffffffffffff16021790555080600360146101000a81548160ff02191690836002811115610d4857fe5b021790555062015180420160048190555060026000806101000a81548160ff02191690836002811115610d7757fe5b021790555050565b60015481565b60007f3000000000000000000000000000000000000000000000000000000000000000827effffffffffffffffffffffffffffffffffffffffffffffffffffffffffffff19161415610dda5760009050610e32565b7f3100000000000000000000000000000000000000000000000000000000000000827effffffffffffffffffffffffffffffffffffffffffffffffffffffffffffff19161415610e2d5760019050610e32565b600290505b919050565b600060016002811115610e4657fe5b836002811115610e5257fe5b148015610e75575060006002811115610e6757fe5b826002811115610e7357fe5b145b80610eb7575060006002811115610e8857fe5b836002811115610e9457fe5b148015610eb65750600280811115610ea857fe5b826002811115610eb457fe5b145b5b80610ef95750600280811115610ec957fe5b836002811115610ed557fe5b148015610ef8575060016002811115610eea57fe5b826002811115610ef657fe5b145b5b15610f075760019050610f0c565b600090505b9291505056fea165627a7a72305820eda65785e76c3699cd8881bae0f0f1aef3e462e8a384d5278fac63a38ce2c8ed0029",
  "source": "pragma solidity ^0.5.0;\n\ncontract PersistenRockPaperScissorsGame {\n    enum Move {Rock, Paper, Scissors}\n    enum ContractState {WaitingForInitiator,\n                        WaitingForChallenger,\n                        WaitingForRevelation}\n    \n    uint128 constant public bidAmount = 0.05 ether;\n    uint128 constant public initiatorIncentive = 0.01 ether;\n    ContractState public state = ContractState.WaitingForInitiator;\n    \n    bytes32 public initiatorCommit;\n    address payable public initiator;\n    address payable public challenger;\n    Move private challengerMove;\n    \n    uint public revelationTimeout;\n    \n    // --------------------------------------------------------\n    // Standard modifiers\n    // --------------------------------------------------------\n    \n    modifier hasNotBeenInitiated() {\n        require(state == ContractState.WaitingForInitiator);\n        _;\n    }\n    \n    modifier hasBeenChallenged() {\n        require(state == ContractState.WaitingForRevelation);\n        _;\n    }\n    \n    modifier hasNotBeenChallenged() {\n        require(state == ContractState.WaitingForChallenger);\n        _;\n    }\n    \n    modifier fromInitiator(address sender) {\n        require(initiator == sender);\n        _;\n    }\n    \n    modifier fromChallenger(address sender) {\n        require(challenger == sender);\n        _;\n    }\n    \n    // --------------------------------------------------------\n    // Public functions\n    // --------------------------------------------------------\n    \n    // Registers the initiator and its commit\n    // (ie salted hash of its move)\n    // He has to send bidAmount AND initiatorIncentive as an incentive to \n    // reveal his move even if he has lost (and in this case\n    // he will retrieve initiatorIncentive)\n    function initiate(bytes32 _initiatorCommit) payable public hasNotBeenInitiated {\n        require(msg.value == bidAmount + initiatorIncentive);\n        initiatorCommit = _initiatorCommit;\n        initiator = msg.sender;\n        state = ContractState.WaitingForChallenger;\n    }\n    \n    \n    // A challenger can play against the initiator, as long as\n    // no one has done so, as he provides the requested bid.\n    function challenge(Move _challengerMove) payable public hasNotBeenChallenged {\n        require(msg.value == bidAmount);\n        challenger = msg.sender;\n        challengerMove = _challengerMove;\n        revelationTimeout = now + 24 hours;\n        state = ContractState.WaitingForRevelation;\n    }\n    \n    // The initiator can destroy the contract as long as he has\n    // not been challenged.\n    function deleteGame() public fromInitiator(msg.sender) hasNotBeenChallenged {\n        initiator.transfer(bidAmount + initiatorIncentive);\n        state = ContractState.WaitingForInitiator;\n    }\n    \n    // The initiator can reveal its move if he has been challenged.\n    // Funds are sent to the winner.\n    function initiatorRevealsMove(string memory moveAndSalt)\n    public fromInitiator(msg.sender) hasBeenChallenged {\n        bytes memory moveAndSaltByte = bytes(moveAndSalt);\n        if(initiatorCommit == keccak256(moveAndSaltByte))\n        {\n            // Initiator not lying -> compare moves and compute winner\n            Move initiatorMove = byteToMove(moveAndSaltByte[0]);\n            if(initiatorMove == challengerMove)\n            {\n                // It's a tie, send everyone's funds back\n                challenger.transfer(bidAmount);\n                initiator.transfer(bidAmount + initiatorIncentive);\n            }\n            else if(isSuperiorTo(initiatorMove, challengerMove))\n            {\n                // Initiator wins, send him back all the funds\n                initiator.transfer(2*bidAmount + initiatorIncentive);\n            }\n            else\n            {\n                // Challenger wins\n                challenger.transfer(2*bidAmount);\n                initiator.transfer(initiatorIncentive);\n            }\n        }\n        else\n        {\n            // Initiator is lying and trying to change its move\n            // -> all funds sent to challenger\n            challenger.transfer(2*bidAmount + initiatorIncentive);\n        }\n        state = ContractState.WaitingForInitiator;\n    }\n    \n    // The challenger can claim victory if the initiator has not\n    // revealed its move after the timeout\n    function challengerClaimsVictory() public \n    fromChallenger(msg.sender) hasBeenChallenged {\n        require(now > revelationTimeout);\n        challenger.transfer(2*bidAmount + initiatorIncentive);\n        state = ContractState.WaitingForInitiator;\n    }\n    \n    \n    // --------------------------------------------------------\n    // Private utility functions\n    // --------------------------------------------------------\n    \n    // Convert byte to Move enum\n    // '0'>Rock, '1'>Paper, '2'>Scissors\n    function byteToMove(bytes1 b) private pure returns (Move) {\n        if(b == '0')\n            return Move.Rock;\n        if(b == '1')\n            return Move.Paper;\n        return Move.Scissors;\n    }\n    \n    // Compare two moves: does Move a wins on Move b?\n    function isSuperiorTo(Move a, Move b) private pure returns (bool) {\n        if(     (a == Move.Paper && b == Move.Rock)\n            ||  (a == Move.Rock && b == Move.Scissors)\n            ||  (a == Move.Scissors && b == Move.Paper))\n            return true;\n        return false;\n    }\n    \n}\n",
  "sourcePath": "/Users/benoitguillard/Documents/Imperial/courses/Term_2/467_-_Principles_of_Distributed_Ledgers/CW2/rock-paper-scissors/contracts/PersistentRockPaperScissors.sol",
  "compiler": {
    "name": "solc",
    "version": "0.5.0+commit.1d4f565a.Emscripten.clang"
  },
  "schemaVersion": "3.0.1",
  "updatedAt": "2019-02-03T17:31:47.899Z",
  "devdoc": {
    "methods": {}
  },
  "userdoc": {
    "methods": {}
  }
}